{
  "contractName": "HelloToken",
  "abi": [
    {
      "constant": true,
      "inputs": [],
      "name": "hello",
      "outputs": [],
      "payable": false,
      "stateMutability": "pure",
      "type": "function"
    },
    {
      "constant": true,
      "inputs": [],
      "name": "hello2",
      "outputs": [
        {
          "name": "",
          "type": "string"
        }
      ],
      "payable": false,
      "stateMutability": "view",
      "type": "function"
    }
  ],
  "bytecode": "0x608060405234801561001057600080fd5b50610163806100206000396000f30060806040526004361061004c576000357c0100000000000000000000000000000000000000000000000000000000900463ffffffff168063011afdd71461005157806319ff1d21146100e1575b600080fd5b34801561005d57600080fd5b506100666100f8565b6040518080602001828103825283818151815260200191508051906020019080838360005b838110156100a657808201518184015260208101905061008b565b50505050905090810190601f1680156100d35780820380516001836020036101000a031916815260200191505b509250505060405180910390f35b3480156100ed57600080fd5b506100f6610135565b005b60606040805190810160405280600581526020017f68656c6c6f000000000000000000000000000000000000000000000000000000815250905090565b5600a165627a7a72305820f41647281af0fa84fe23ccce0f25d0d51ec50dca6567a8f08961fb72972144340029",
  "source": "pragma solidity ^0.4.24;\n\ncontract HelloToken {\n    function hello() public pure{\n\n    }\n\n    function hello2() public view returns(string){\n        return \"hello\";\n    }\n}\n",
  "sourcePath": "/Users/kyeongrok/git/eth/truffle_01/contracts/HelloToken.sol",
  "compiler": {
    "name": "solc",
    "version": "0.4.24+commit.e67f0147.Emscripten.clang"
  },
  "schemaVersion": "2.0.1",
  "updatedAt": "2018-07-09T18:28:08.594Z"
}